{
  "_format": "hh-sol-artifact-1",
  "contractName": "OrdersContract",
  "sourceName": "contracts/OrdersContract.sol",
  "abi": [
    {
      "inputs": [],
      "stateMutability": "nonpayable",
      "type": "constructor"
    },
    {
      "anonymous": false,
      "inputs": [
        {
          "indexed": false,
          "internalType": "string",
          "name": "orderId",
          "type": "string"
        },
        {
          "indexed": false,
          "internalType": "address",
          "name": "customer",
          "type": "address"
        },
        {
          "indexed": false,
          "internalType": "uint256",
          "name": "amount",
          "type": "uint256"
        },
        {
          "indexed": false,
          "internalType": "uint256",
          "name": "timestamp",
          "type": "uint256"
        }
      ],
      "name": "OrderRecorded",
      "type": "event"
    },
    {
      "anonymous": false,
      "inputs": [
        {
          "indexed": false,
          "internalType": "string",
          "name": "orderId",
          "type": "string"
        },
        {
          "indexed": false,
          "internalType": "string",
          "name": "newStatus",
          "type": "string"
        },
        {
          "indexed": false,
          "internalType": "uint256",
          "name": "timestamp",
          "type": "uint256"
        }
      ],
      "name": "OrderStatusUpdated",
      "type": "event"
    },
    {
      "inputs": [
        {
          "internalType": "string",
          "name": "orderId",
          "type": "string"
        }
      ],
      "name": "getOrder",
      "outputs": [
        {
          "components": [
            {
              "internalType": "string",
              "name": "orderId",
              "type": "string"
            },
            {
              "internalType": "address",
              "name": "customer",
              "type": "address"
            },
            {
              "internalType": "uint256",
              "name": "amount",
              "type": "uint256"
            },
            {
              "internalType": "uint256",
              "name": "timestamp",
              "type": "uint256"
            },
            {
              "internalType": "string",
              "name": "status",
              "type": "string"
            }
          ],
          "internalType": "struct OrdersContract.Order",
          "name": "",
          "type": "tuple"
        }
      ],
      "stateMutability": "view",
      "type": "function"
    },
    {
      "inputs": [
        {
          "internalType": "string",
          "name": "",
          "type": "string"
        }
      ],
      "name": "orders",
      "outputs": [
        {
          "internalType": "string",
          "name": "orderId",
          "type": "string"
        },
        {
          "internalType": "address",
          "name": "customer",
          "type": "address"
        },
        {
          "internalType": "uint256",
          "name": "amount",
          "type": "uint256"
        },
        {
          "internalType": "uint256",
          "name": "timestamp",
          "type": "uint256"
        },
        {
          "internalType": "string",
          "name": "status",
          "type": "string"
        }
      ],
      "stateMutability": "view",
      "type": "function"
    },
    {
      "inputs": [],
      "name": "owner",
      "outputs": [
        {
          "internalType": "address",
          "name": "",
          "type": "address"
        }
      ],
      "stateMutability": "view",
      "type": "function"
    },
    {
      "inputs": [
        {
          "internalType": "string",
          "name": "orderId",
          "type": "string"
        },
        {
          "internalType": "address",
          "name": "customer",
          "type": "address"
        },
        {
          "internalType": "uint256",
          "name": "amount",
          "type": "uint256"
        }
      ],
      "name": "recordOrder",
      "outputs": [],
      "stateMutability": "nonpayable",
      "type": "function"
    },
    {
      "inputs": [
        {
          "internalType": "string",
          "name": "orderId",
          "type": "string"
        },
        {
          "internalType": "string",
          "name": "newStatus",
          "type": "string"
        }
      ],
      "name": "updateStatus",
      "outputs": [],
      "stateMutability": "nonpayable",
      "type": "function"
    }
  ],
  "bytecode": "0x6080604052348015600e575f5ffd5b503360015f6101000a81548173ffffffffffffffffffffffffffffffffffffffff021916908373ffffffffffffffffffffffffffffffffffffffff1602179055506110d08061005c5f395ff3fe608060405234801561000f575f5ffd5b5060043610610055575f3560e01c80631a94894714610059578063347047cc1461008d578063712ca0f8146100a95780638da5cb5b146100d9578063bd5996b4146100f7575b5f5ffd5b610073600480360381019061006e91906108dd565b610113565b6040516100849594939291906109db565b60405180910390f35b6100a760048036038101906100a29190610a3a565b610287565b005b6100c360048036038101906100be91906108dd565b610383565b6040516100d09190610b90565b60405180910390f35b6100e1610542565b6040516100ee9190610bb0565b60405180910390f35b610111600480360381019061010c9190610c1d565b610567565b005b5f818051602081018201805184825260208301602085012081835280955050505050505f91509050805f01805461014990610cb6565b80601f016020809104026020016040519081016040528092919081815260200182805461017590610cb6565b80156101c05780601f10610197576101008083540402835291602001916101c0565b820191905f5260205f20905b8154815290600101906020018083116101a357829003601f168201915b505050505090806001015f9054906101000a900473ffffffffffffffffffffffffffffffffffffffff169080600201549080600301549080600401805461020690610cb6565b80601f016020809104026020016040519081016040528092919081815260200182805461023290610cb6565b801561027d5780601f106102545761010080835404028352916020019161027d565b820191905f5260205f20905b81548152906001019060200180831161026057829003601f168201915b5050505050905085565b60015f9054906101000a900473ffffffffffffffffffffffffffffffffffffffff1673ffffffffffffffffffffffffffffffffffffffff163373ffffffffffffffffffffffffffffffffffffffff1614610316576040517f08c379a000000000000000000000000000000000000000000000000000000000815260040161030d90610d30565b60405180910390fd5b805f836040516103269190610d88565b908152602001604051809103902060040190816103439190610f3e565b507f857b1d9665706b36acb99cdcb755b983f02a25cc4c6c48943a82bfc21e031a328282426040516103779392919061100d565b60405180910390a15050565b61038b61074e565b5f8260405161039a9190610d88565b90815260200160405180910390206040518060a00160405290815f820180546103c290610cb6565b80601f01602080910402602001604051908101604052809291908181526020018280546103ee90610cb6565b80156104395780601f1061041057610100808354040283529160200191610439565b820191905f5260205f20905b81548152906001019060200180831161041c57829003601f168201915b50505050508152602001600182015f9054906101000a900473ffffffffffffffffffffffffffffffffffffffff1673ffffffffffffffffffffffffffffffffffffffff1673ffffffffffffffffffffffffffffffffffffffff16815260200160028201548152602001600382015481526020016004820180546104bb90610cb6565b80601f01602080910402602001604051908101604052809291908181526020018280546104e790610cb6565b80156105325780601f1061050957610100808354040283529160200191610532565b820191905f5260205f20905b81548152906001019060200180831161051557829003601f168201915b5050505050815250509050919050565b60015f9054906101000a900473ffffffffffffffffffffffffffffffffffffffff1681565b60015f9054906101000a900473ffffffffffffffffffffffffffffffffffffffff1673ffffffffffffffffffffffffffffffffffffffff163373ffffffffffffffffffffffffffffffffffffffff16146105f6576040517f08c379a00000000000000000000000000000000000000000000000000000000081526004016105ed90610d30565b60405180910390fd5b6040518060a001604052808481526020018373ffffffffffffffffffffffffffffffffffffffff1681526020018281526020014281526020016040518060400160405280600681526020017f706c6163656400000000000000000000000000000000000000000000000000008152508152505f846040516106779190610d88565b90815260200160405180910390205f820151815f0190816106989190610f3e565b506020820151816001015f6101000a81548173ffffffffffffffffffffffffffffffffffffffff021916908373ffffffffffffffffffffffffffffffffffffffff160217905550604082015181600201556060820151816003015560808201518160040190816107089190610f3e565b509050507fb74ff2d9eb482c39f468960569faa581b714a63a690f9b90cd18fc8e16a85ee7838383426040516107419493929190611050565b60405180910390a1505050565b6040518060a00160405280606081526020015f73ffffffffffffffffffffffffffffffffffffffff1681526020015f81526020015f8152602001606081525090565b5f604051905090565b5f5ffd5b5f5ffd5b5f5ffd5b5f5ffd5b5f601f19601f8301169050919050565b7f4e487b71000000000000000000000000000000000000000000000000000000005f52604160045260245ffd5b6107ef826107a9565b810181811067ffffffffffffffff8211171561080e5761080d6107b9565b5b80604052505050565b5f610820610790565b905061082c82826107e6565b919050565b5f67ffffffffffffffff82111561084b5761084a6107b9565b5b610854826107a9565b9050602081019050919050565b828183375f83830152505050565b5f61088161087c84610831565b610817565b90508281526020810184848401111561089d5761089c6107a5565b5b6108a8848285610861565b509392505050565b5f82601f8301126108c4576108c36107a1565b5b81356108d484826020860161086f565b91505092915050565b5f602082840312156108f2576108f1610799565b5b5f82013567ffffffffffffffff81111561090f5761090e61079d565b5b61091b848285016108b0565b91505092915050565b5f81519050919050565b5f82825260208201905092915050565b8281835e5f83830152505050565b5f61095682610924565b610960818561092e565b935061097081856020860161093e565b610979816107a9565b840191505092915050565b5f73ffffffffffffffffffffffffffffffffffffffff82169050919050565b5f6109ad82610984565b9050919050565b6109bd816109a3565b82525050565b5f819050919050565b6109d5816109c3565b82525050565b5f60a0820190508181035f8301526109f3818861094c565b9050610a0260208301876109b4565b610a0f60408301866109cc565b610a1c60608301856109cc565b8181036080830152610a2e818461094c565b90509695505050505050565b5f5f60408385031215610a5057610a4f610799565b5b5f83013567ffffffffffffffff811115610a6d57610a6c61079d565b5b610a79858286016108b0565b925050602083013567ffffffffffffffff811115610a9a57610a9961079d565b5b610aa6858286016108b0565b9150509250929050565b5f82825260208201905092915050565b5f610aca82610924565b610ad48185610ab0565b9350610ae481856020860161093e565b610aed816107a9565b840191505092915050565b610b01816109a3565b82525050565b610b10816109c3565b82525050565b5f60a083015f8301518482035f860152610b308282610ac0565b9150506020830151610b456020860182610af8565b506040830151610b586040860182610b07565b506060830151610b6b6060860182610b07565b5060808301518482036080860152610b838282610ac0565b9150508091505092915050565b5f6020820190508181035f830152610ba88184610b16565b905092915050565b5f602082019050610bc35f8301846109b4565b92915050565b610bd2816109a3565b8114610bdc575f5ffd5b50565b5f81359050610bed81610bc9565b92915050565b610bfc816109c3565b8114610c06575f5ffd5b50565b5f81359050610c1781610bf3565b92915050565b5f5f5f60608486031215610c3457610c33610799565b5b5f84013567ffffffffffffffff811115610c5157610c5061079d565b5b610c5d868287016108b0565b9350506020610c6e86828701610bdf565b9250506040610c7f86828701610c09565b9150509250925092565b7f4e487b71000000000000000000000000000000000000000000000000000000005f52602260045260245ffd5b5f6002820490506001821680610ccd57607f821691505b602082108103610ce057610cdf610c89565b5b50919050565b7f4e6f7420617574686f72697a65640000000000000000000000000000000000005f82015250565b5f610d1a600e8361092e565b9150610d2582610ce6565b602082019050919050565b5f6020820190508181035f830152610d4781610d0e565b9050919050565b5f81905092915050565b5f610d6282610924565b610d6c8185610d4e565b9350610d7c81856020860161093e565b80840191505092915050565b5f610d938284610d58565b915081905092915050565b5f819050815f5260205f209050919050565b5f6020601f8301049050919050565b5f82821b905092915050565b5f60088302610dfa7fffffffffffffffffffffffffffffffffffffffffffffffffffffffffffffffff82610dbf565b610e048683610dbf565b95508019841693508086168417925050509392505050565b5f819050919050565b5f610e3f610e3a610e35846109c3565b610e1c565b6109c3565b9050919050565b5f819050919050565b610e5883610e25565b610e6c610e6482610e46565b848454610dcb565b825550505050565b5f5f905090565b610e83610e74565b610e8e818484610e4f565b505050565b5b81811015610eb157610ea65f82610e7b565b600181019050610e94565b5050565b601f821115610ef657610ec781610d9e565b610ed084610db0565b81016020851015610edf578190505b610ef3610eeb85610db0565b830182610e93565b50505b505050565b5f82821c905092915050565b5f610f165f1984600802610efb565b1980831691505092915050565b5f610f2e8383610f07565b9150826002028217905092915050565b610f4782610924565b67ffffffffffffffff811115610f6057610f5f6107b9565b5b610f6a8254610cb6565b610f75828285610eb5565b5f60209050601f831160018114610fa6575f8415610f94578287015190505b610f9e8582610f23565b865550611005565b601f198416610fb486610d9e565b5f5b82811015610fdb57848901518255600182019150602085019450602081019050610fb6565b86831015610ff85784890151610ff4601f891682610f07565b8355505b6001600288020188555050505b505050505050565b5f6060820190508181035f830152611025818661094c565b90508181036020830152611039818561094c565b905061104860408301846109cc565b949350505050565b5f6080820190508181035f830152611068818761094c565b905061107760208301866109b4565b61108460408301856109cc565b61109160608301846109cc565b9594505050505056fea26469706673582212207dbf22ea024276e63f8d649c8d8d749a914d9f411263b1ae0af910207d90905364736f6c634300081c0033",
  "linkReferences": {},
  "deployedLinkReferences": {}
}