{
  "_format": "hh-sol-artifact-1",
  "contractName": "FashionNFT",
  "sourceName": "contracts/FashionNFT.sol",
  "abi": [
    {
      "inputs": [],
      "stateMutability": "nonpayable",
      "type": "constructor"
    },
    {
      "inputs": [
        {
          "internalType": "address",
          "name": "sender",
          "type": "address"
        },
        {
          "internalType": "uint256",
          "name": "tokenId",
          "type": "uint256"
        },
        {
          "internalType": "address",
          "name": "owner",
          "type": "address"
        }
      ],
      "name": "ERC721IncorrectOwner",
      "type": "error"
    },
    {
      "inputs": [
        {
          "internalType": "address",
          "name": "operator",
          "type": "address"
        },
        {
          "internalType": "uint256",
          "name": "tokenId",
          "type": "uint256"
        }
      ],
      "name": "ERC721InsufficientApproval",
      "type": "error"
    },
    {
      "inputs": [
        {
          "internalType": "address",
          "name": "approver",
          "type": "address"
        }
      ],
      "name": "ERC721InvalidApprover",
      "type": "error"
    },
    {
      "inputs": [
        {
          "internalType": "address",
          "name": "operator",
          "type": "address"
        }
      ],
      "name": "ERC721InvalidOperator",
      "type": "error"
    },
    {
      "inputs": [
        {
          "internalType": "address",
          "name": "owner",
          "type": "address"
        }
      ],
      "name": "ERC721InvalidOwner",
      "type": "error"
    },
    {
      "inputs": [
        {
          "internalType": "address",
          "name": "receiver",
          "type": "address"
        }
      ],
      "name": "ERC721InvalidReceiver",
      "type": "error"
    },
    {
      "inputs": [
        {
          "internalType": "address",
          "name": "sender",
          "type": "address"
        }
      ],
      "name": "ERC721InvalidSender",
      "type": "error"
    },
    {
      "inputs": [
        {
          "internalType": "uint256",
          "name": "tokenId",
          "type": "uint256"
        }
      ],
      "name": "ERC721NonexistentToken",
      "type": "error"
    },
    {
      "anonymous": false,
      "inputs": [
        {
          "indexed": true,
          "internalType": "address",
          "name": "owner",
          "type": "address"
        },
        {
          "indexed": true,
          "internalType": "address",
          "name": "approved",
          "type": "address"
        },
        {
          "indexed": true,
          "internalType": "uint256",
          "name": "tokenId",
          "type": "uint256"
        }
      ],
      "name": "Approval",
      "type": "event"
    },
    {
      "anonymous": false,
      "inputs": [
        {
          "indexed": true,
          "internalType": "address",
          "name": "owner",
          "type": "address"
        },
        {
          "indexed": true,
          "internalType": "address",
          "name": "operator",
          "type": "address"
        },
        {
          "indexed": false,
          "internalType": "bool",
          "name": "approved",
          "type": "bool"
        }
      ],
      "name": "ApprovalForAll",
      "type": "event"
    },
    {
      "anonymous": false,
      "inputs": [
        {
          "indexed": true,
          "internalType": "address",
          "name": "from",
          "type": "address"
        },
        {
          "indexed": true,
          "internalType": "address",
          "name": "to",
          "type": "address"
        },
        {
          "indexed": true,
          "internalType": "uint256",
          "name": "tokenId",
          "type": "uint256"
        }
      ],
      "name": "Transfer",
      "type": "event"
    },
    {
      "inputs": [
        {
          "internalType": "address",
          "name": "to",
          "type": "address"
        },
        {
          "internalType": "uint256",
          "name": "tokenId",
          "type": "uint256"
        }
      ],
      "name": "approve",
      "outputs": [],
      "stateMutability": "nonpayable",
      "type": "function"
    },
    {
      "inputs": [
        {
          "internalType": "address",
          "name": "owner",
          "type": "address"
        }
      ],
      "name": "balanceOf",
      "outputs": [
        {
          "internalType": "uint256",
          "name": "",
          "type": "uint256"
        }
      ],
      "stateMutability": "view",
      "type": "function"
    },
    {
      "inputs": [
        {
          "internalType": "uint256",
          "name": "tokenId",
          "type": "uint256"
        }
      ],
      "name": "getApproved",
      "outputs": [
        {
          "internalType": "address",
          "name": "",
          "type": "address"
        }
      ],
      "stateMutability": "view",
      "type": "function"
    },
    {
      "inputs": [
        {
          "internalType": "address",
          "name": "owner",
          "type": "address"
        },
        {
          "internalType": "address",
          "name": "operator",
          "type": "address"
        }
      ],
      "name": "isApprovedForAll",
      "outputs": [
        {
          "internalType": "bool",
          "name": "",
          "type": "bool"
        }
      ],
      "stateMutability": "view",
      "type": "function"
    },
    {
      "inputs": [
        {
          "internalType": "address",
          "name": "to",
          "type": "address"
        },
        {
          "internalType": "string",
          "name": "pid",
          "type": "string"
        }
      ],
      "name": "mintProduct",
      "outputs": [
        {
          "internalType": "uint256",
          "name": "",
          "type": "uint256"
        }
      ],
      "stateMutability": "nonpayable",
      "type": "function"
    },
    {
      "inputs": [],
      "name": "name",
      "outputs": [
        {
          "internalType": "string",
          "name": "",
          "type": "string"
        }
      ],
      "stateMutability": "view",
      "type": "function"
    },
    {
      "inputs": [],
      "name": "owner",
      "outputs": [
        {
          "internalType": "address",
          "name": "",
          "type": "address"
        }
      ],
      "stateMutability": "view",
      "type": "function"
    },
    {
      "inputs": [
        {
          "internalType": "uint256",
          "name": "tokenId",
          "type": "uint256"
        }
      ],
      "name": "ownerOf",
      "outputs": [
        {
          "internalType": "address",
          "name": "",
          "type": "address"
        }
      ],
      "stateMutability": "view",
      "type": "function"
    },
    {
      "inputs": [
        {
          "internalType": "uint256",
          "name": "",
          "type": "uint256"
        }
      ],
      "name": "productId",
      "outputs": [
        {
          "internalType": "string",
          "name": "",
          "type": "string"
        }
      ],
      "stateMutability": "view",
      "type": "function"
    },
    {
      "inputs": [
        {
          "internalType": "address",
          "name": "from",
          "type": "address"
        },
        {
          "internalType": "address",
          "name": "to",
          "type": "address"
        },
        {
          "internalType": "uint256",
          "name": "tokenId",
          "type": "uint256"
        }
      ],
      "name": "safeTransferFrom",
      "outputs": [],
      "stateMutability": "nonpayable",
      "type": "function"
    },
    {
      "inputs": [
        {
          "internalType": "address",
          "name": "from",
          "type": "address"
        },
        {
          "internalType": "address",
          "name": "to",
          "type": "address"
        },
        {
          "internalType": "uint256",
          "name": "tokenId",
          "type": "uint256"
        },
        {
          "internalType": "bytes",
          "name": "data",
          "type": "bytes"
        }
      ],
      "name": "safeTransferFrom",
      "outputs": [],
      "stateMutability": "nonpayable",
      "type": "function"
    },
    {
      "inputs": [
        {
          "internalType": "address",
          "name": "operator",
          "type": "address"
        },
        {
          "internalType": "bool",
          "name": "approved",
          "type": "bool"
        }
      ],
      "name": "setApprovalForAll",
      "outputs": [],
      "stateMutability": "nonpayable",
      "type": "function"
    },
    {
      "inputs": [
        {
          "internalType": "bytes4",
          "name": "interfaceId",
          "type": "bytes4"
        }
      ],
      "name": "supportsInterface",
      "outputs": [
        {
          "internalType": "bool",
          "name": "",
          "type": "bool"
        }
      ],
      "stateMutability": "view",
      "type": "function"
    },
    {
      "inputs": [],
      "name": "symbol",
      "outputs": [
        {
          "internalType": "string",
          "name": "",
          "type": "string"
        }
      ],
      "stateMutability": "view",
      "type": "function"
    },
    {
      "inputs": [],
      "name": "tokenId",
      "outputs": [
        {
          "internalType": "uint256",
          "name": "",
          "type": "uint256"
        }
      ],
      "stateMutability": "view",
      "type": "function"
    },
    {
      "inputs": [
        {
          "internalType": "uint256",
          "name": "tokenId",
          "type": "uint256"
        }
      ],
      "name": "tokenURI",
      "outputs": [
        {
          "internalType": "string",
          "name": "",
          "type": "string"
        }
      ],
      "stateMutability": "view",
      "type": "function"
    },
    {
      "inputs": [
        {
          "internalType": "address",
          "name": "from",
          "type": "address"
        },
        {
          "internalType": "address",
          "name": "to",
          "type": "address"
        },
        {
          "internalType": "uint256",
          "name": "tokenId",
          "type": "uint256"
        }
      ],
      "name": "transferFrom",
      "outputs": [],
      "stateMutability": "nonpayable",
      "type": "function"
    }
  ],
  "bytecode": "0x608060405234801561000f575f5ffd5b506040518060400160405280600c81526020017f46617368696f6e566572736500000000000000000000000000000000000000008152506040518060400160405280600381526020017f464e560000000000000000000000000000000000000000000000000000000000815250815f908161008a919061031f565b50806001908161009a919061031f565b5050503360075f6101000a81548173ffffffffffffffffffffffffffffffffffffffff021916908373ffffffffffffffffffffffffffffffffffffffff1602179055506103ee565b5f81519050919050565b7f4e487b71000000000000000000000000000000000000000000000000000000005f52604160045260245ffd5b7f4e487b71000000000000000000000000000000000000000000000000000000005f52602260045260245ffd5b5f600282049050600182168061015d57607f821691505b6020821081036101705761016f610119565b5b50919050565b5f819050815f5260205f209050919050565b5f6020601f8301049050919050565b5f82821b905092915050565b5f600883026101d27fffffffffffffffffffffffffffffffffffffffffffffffffffffffffffffffff82610197565b6101dc8683610197565b95508019841693508086168417925050509392505050565b5f819050919050565b5f819050919050565b5f61022061021b610216846101f4565b6101fd565b6101f4565b9050919050565b5f819050919050565b61023983610206565b61024d61024582610227565b8484546101a3565b825550505050565b5f5f905090565b610264610255565b61026f818484610230565b505050565b5b81811015610292576102875f8261025c565b600181019050610275565b5050565b601f8211156102d7576102a881610176565b6102b184610188565b810160208510156102c0578190505b6102d46102cc85610188565b830182610274565b50505b505050565b5f82821c905092915050565b5f6102f75f19846008026102dc565b1980831691505092915050565b5f61030f83836102e8565b9150826002028217905092915050565b610328826100e2565b67ffffffffffffffff811115610341576103406100ec565b5b61034b8254610146565b610356828285610296565b5f60209050601f831160018114610387575f8415610375578287015190505b61037f8582610304565b8655506103e6565b601f19841661039586610176565b5f5b828110156103bc57848901518255600182019150602085019450602081019050610397565b868310156103d957848901516103d5601f8916826102e8565b8355505b6001600288020188555050505b505050505050565b6123b6806103fb5f395ff3fe608060405234801561000f575f5ffd5b5060043610610109575f3560e01c806370a08231116100a0578063a22cb4651161006f578063a22cb465146102c9578063b88d4fde146102e5578063c006d7d614610301578063c87b56dd14610331578063e985e9c51461036157610109565b806370a082311461022d5780638b174b1b1461025d5780638da5cb5b1461028d57806395d89b41146102ab57610109565b806317d70f7c116100dc57806317d70f7c146101a757806323b872dd146101c557806342842e0e146101e15780636352211e146101fd57610109565b806301ffc9a71461010d57806306fdde031461013d578063081812fc1461015b578063095ea7b31461018b575b5f5ffd5b61012760048036038101906101229190611854565b610391565b6040516101349190611899565b60405180910390f35b610145610472565b6040516101529190611922565b60405180910390f35b61017560048036038101906101709190611975565b610501565b60405161018291906119df565b60405180910390f35b6101a560048036038101906101a09190611a22565b61051c565b005b6101af610532565b6040516101bc9190611a6f565b60405180910390f35b6101df60048036038101906101da9190611a88565b610538565b005b6101fb60048036038101906101f69190611a88565b610637565b005b61021760048036038101906102129190611975565b610656565b60405161022491906119df565b60405180910390f35b61024760048036038101906102429190611ad8565b610667565b6040516102549190611a6f565b60405180910390f35b61027760048036038101906102729190611975565b61071d565b6040516102849190611922565b60405180910390f35b6102956107b8565b6040516102a291906119df565b60405180910390f35b6102b36107dd565b6040516102c09190611922565b60405180910390f35b6102e360048036038101906102de9190611b2d565b61086d565b005b6102ff60048036038101906102fa9190611c97565b610883565b005b61031b60048036038101906103169190611d74565b6108a8565b6040516103289190611a6f565b60405180910390f35b61034b60048036038101906103469190611975565b61098a565b6040516103589190611922565b60405180910390f35b61037b60048036038101906103769190611dd1565b6109f0565b6040516103889190611899565b60405180910390f35b5f7f80ac58cd000000000000000000000000000000000000000000000000000000007bffffffffffffffffffffffffffffffffffffffffffffffffffffffff1916827bffffffffffffffffffffffffffffffffffffffffffffffffffffffff1916148061045b57507f5b5e139f000000000000000000000000000000000000000000000000000000007bffffffffffffffffffffffffffffffffffffffffffffffffffffffff1916827bffffffffffffffffffffffffffffffffffffffffffffffffffffffff1916145b8061046b575061046a82610a7e565b5b9050919050565b60605f805461048090611e3c565b80601f01602080910402602001604051908101604052809291908181526020018280546104ac90611e3c565b80156104f75780601f106104ce576101008083540402835291602001916104f7565b820191905f5260205f20905b8154815290600101906020018083116104da57829003601f168201915b5050505050905090565b5f61050b82610ae7565b5061051582610b6d565b9050919050565b61052e8282610529610ba6565b610bad565b5050565b60065481565b5f73ffffffffffffffffffffffffffffffffffffffff168273ffffffffffffffffffffffffffffffffffffffff16036105a8575f6040517f64a0ae9200000000000000000000000000000000000000000000000000000000815260040161059f91906119df565b60405180910390fd5b5f6105bb83836105b6610ba6565b610bbf565b90508373ffffffffffffffffffffffffffffffffffffffff168173ffffffffffffffffffffffffffffffffffffffff1614610631578382826040517f64283d7b00000000000000000000000000000000000000000000000000000000815260040161062893929190611e6c565b60405180910390fd5b50505050565b61065183838360405180602001604052805f815250610883565b505050565b5f61066082610ae7565b9050919050565b5f5f73ffffffffffffffffffffffffffffffffffffffff168273ffffffffffffffffffffffffffffffffffffffff16036106d8575f6040517f89c62b640000000000000000000000000000000000000000000000000000000081526004016106cf91906119df565b60405180910390fd5b60035f8373ffffffffffffffffffffffffffffffffffffffff1673ffffffffffffffffffffffffffffffffffffffff1681526020019081526020015f20549050919050565b6008602052805f5260405f205f91509050805461073990611e3c565b80601f016020809104026020016040519081016040528092919081815260200182805461076590611e3c565b80156107b05780601f10610787576101008083540402835291602001916107b0565b820191905f5260205f20905b81548152906001019060200180831161079357829003601f168201915b505050505081565b60075f9054906101000a900473ffffffffffffffffffffffffffffffffffffffff1681565b6060600180546107ec90611e3c565b80601f016020809104026020016040519081016040528092919081815260200182805461081890611e3c565b80156108635780601f1061083a57610100808354040283529160200191610863565b820191905f5260205f20905b81548152906001019060200180831161084657829003601f168201915b5050505050905090565b61087f610878610ba6565b8383610dca565b5050565b61088e848484610538565b6108a2610899610ba6565b85858585610fa3565b50505050565b5f60075f9054906101000a900473ffffffffffffffffffffffffffffffffffffffff1673ffffffffffffffffffffffffffffffffffffffff163373ffffffffffffffffffffffffffffffffffffffff1614610938576040517f08c379a000000000000000000000000000000000000000000000000000000000815260040161092f90611eeb565b60405180910390fd5b60065f81548092919061094a90611f36565b919050555061095b8460065461114f565b828260085f60065481526020019081526020015f20918261097d929190612127565b5060065490509392505050565b606061099582610ae7565b505f61099f611242565b90505f8151116109bd5760405180602001604052805f8152506109e8565b806109c784611258565b6040516020016109d892919061222e565b6040516020818303038152906040525b915050919050565b5f60055f8473ffffffffffffffffffffffffffffffffffffffff1673ffffffffffffffffffffffffffffffffffffffff1681526020019081526020015f205f8373ffffffffffffffffffffffffffffffffffffffff1673ffffffffffffffffffffffffffffffffffffffff1681526020019081526020015f205f9054906101000a900460ff16905092915050565b5f7f01ffc9a7000000000000000000000000000000000000000000000000000000007bffffffffffffffffffffffffffffffffffffffffffffffffffffffff1916827bffffffffffffffffffffffffffffffffffffffffffffffffffffffff1916149050919050565b5f5f610af283611322565b90505f73ffffffffffffffffffffffffffffffffffffffff168173ffffffffffffffffffffffffffffffffffffffff1603610b6457826040517f7e273289000000000000000000000000000000000000000000000000000000008152600401610b5b9190611a6f565b60405180910390fd5b80915050919050565b5f60045f8381526020019081526020015f205f9054906101000a900473ffffffffffffffffffffffffffffffffffffffff169050919050565b5f33905090565b610bba838383600161135b565b505050565b5f5f610bca84611322565b90505f73ffffffffffffffffffffffffffffffffffffffff168373ffffffffffffffffffffffffffffffffffffffff1614610c0b57610c0a81848661151a565b5b5f73ffffffffffffffffffffffffffffffffffffffff168173ffffffffffffffffffffffffffffffffffffffff1614610c9657610c4a5f855f5f61135b565b600160035f8373ffffffffffffffffffffffffffffffffffffffff1673ffffffffffffffffffffffffffffffffffffffff1681526020019081526020015f205f82825403925050819055505b5f73ffffffffffffffffffffffffffffffffffffffff168573ffffffffffffffffffffffffffffffffffffffff1614610d1557600160035f8773ffffffffffffffffffffffffffffffffffffffff1673ffffffffffffffffffffffffffffffffffffffff1681526020019081526020015f205f82825401925050819055505b8460025f8681526020019081526020015f205f6101000a81548173ffffffffffffffffffffffffffffffffffffffff021916908373ffffffffffffffffffffffffffffffffffffffff160217905550838573ffffffffffffffffffffffffffffffffffffffff168273ffffffffffffffffffffffffffffffffffffffff167fddf252ad1be2c89b69c2b068fc378daa952ba7f163c4a11628f55a4df523b3ef60405160405180910390a4809150509392505050565b5f73ffffffffffffffffffffffffffffffffffffffff168373ffffffffffffffffffffffffffffffffffffffff1603610e3a575f6040517fa9fbf51f000000000000000000000000000000000000000000000000000000008152600401610e3191906119df565b60405180910390fd5b5f73ffffffffffffffffffffffffffffffffffffffff168273ffffffffffffffffffffffffffffffffffffffff1603610eaa57816040517f5b08ba18000000000000000000000000000000000000000000000000000000008152600401610ea191906119df565b60405180910390fd5b8060055f8573ffffffffffffffffffffffffffffffffffffffff1673ffffffffffffffffffffffffffffffffffffffff1681526020019081526020015f205f8473ffffffffffffffffffffffffffffffffffffffff1673ffffffffffffffffffffffffffffffffffffffff1681526020019081526020015f205f6101000a81548160ff0219169083151502179055508173ffffffffffffffffffffffffffffffffffffffff168373ffffffffffffffffffffffffffffffffffffffff167f17307eab39ab6107e8899845ad3d59bd9653f200f220920489ca2b5937696c3183604051610f969190611899565b60405180910390a3505050565b5f8373ffffffffffffffffffffffffffffffffffffffff163b1115611148578273ffffffffffffffffffffffffffffffffffffffff1663150b7a02868685856040518563ffffffff1660e01b815260040161100194939291906122a3565b6020604051808303815f875af192505050801561103c57506040513d601f19601f820116820180604052508101906110399190612301565b60015b6110bd573d805f811461106a576040519150601f19603f3d011682016040523d82523d5f602084013e61106f565b606091505b505f8151036110b557836040517f64a0ae920000000000000000000000000000000000000000000000000000000081526004016110ac91906119df565b60405180910390fd5b805160208201fd5b63150b7a0260e01b7bffffffffffffffffffffffffffffffffffffffffffffffffffffffff1916817bffffffffffffffffffffffffffffffffffffffffffffffffffffffff19161461114657836040517f64a0ae9200000000000000000000000000000000000000000000000000000000815260040161113d91906119df565b60405180910390fd5b505b5050505050565b5f73ffffffffffffffffffffffffffffffffffffffff168273ffffffffffffffffffffffffffffffffffffffff16036111bf575f6040517f64a0ae920000000000000000000000000000000000000000000000000000000081526004016111b691906119df565b60405180910390fd5b5f6111cb83835f610bbf565b90505f73ffffffffffffffffffffffffffffffffffffffff168173ffffffffffffffffffffffffffffffffffffffff161461123d575f6040517f73c6ac6e00000000000000000000000000000000000000000000000000000000815260040161123491906119df565b60405180910390fd5b505050565b606060405180602001604052805f815250905090565b60605f6001611266846115dd565b0190505f8167ffffffffffffffff81111561128457611283611b73565b5b6040519080825280601f01601f1916602001820160405280156112b65781602001600182028036833780820191505090505b5090505f82602083010190505b600115611317578080600190039150507f3031323334353637383961626364656600000000000000000000000000000000600a86061a8153600a858161130c5761130b61232c565b5b0494505f85036112c3575b819350505050919050565b5f60025f8381526020019081526020015f205f9054906101000a900473ffffffffffffffffffffffffffffffffffffffff169050919050565b808061139357505f73ffffffffffffffffffffffffffffffffffffffff168273ffffffffffffffffffffffffffffffffffffffff1614155b156114c5575f6113a284610ae7565b90505f73ffffffffffffffffffffffffffffffffffffffff168373ffffffffffffffffffffffffffffffffffffffff161415801561140c57508273ffffffffffffffffffffffffffffffffffffffff168173ffffffffffffffffffffffffffffffffffffffff1614155b801561141f575061141d81846109f0565b155b1561146157826040517fa9fbf51f00000000000000000000000000000000000000000000000000000000815260040161145891906119df565b60405180910390fd5b81156114c357838573ffffffffffffffffffffffffffffffffffffffff168273ffffffffffffffffffffffffffffffffffffffff167f8c5be1e5ebec7d5bd14f71427d1e84f3dd0314c0f7b2291e5b200ac8c7c3b92560405160405180910390a45b505b8360045f8581526020019081526020015f205f6101000a81548173ffffffffffffffffffffffffffffffffffffffff021916908373ffffffffffffffffffffffffffffffffffffffff16021790555050505050565b61152583838361172e565b6115d8575f73ffffffffffffffffffffffffffffffffffffffff168373ffffffffffffffffffffffffffffffffffffffff160361159957806040517f7e2732890000000000000000000000000000000000000000000000000000000081526004016115909190611a6f565b60405180910390fd5b81816040517f177e802f0000000000000000000000000000000000000000000000000000000081526004016115cf929190612359565b60405180910390fd5b505050565b5f5f5f90507a184f03e93ff9f4daa797ed6e38ed64bf6a1f0100000000000000008310611639577a184f03e93ff9f4daa797ed6e38ed64bf6a1f010000000000000000838161162f5761162e61232c565b5b0492506040810190505b6d04ee2d6d415b85acef81000000008310611676576d04ee2d6d415b85acef8100000000838161166c5761166b61232c565b5b0492506020810190505b662386f26fc1000083106116a557662386f26fc10000838161169b5761169a61232c565b5b0492506010810190505b6305f5e10083106116ce576305f5e10083816116c4576116c361232c565b5b0492506008810190505b61271083106116f35761271083816116e9576116e861232c565b5b0492506004810190505b60648310611716576064838161170c5761170b61232c565b5b0492506002810190505b600a8310611725576001810190505b80915050919050565b5f5f73ffffffffffffffffffffffffffffffffffffffff168373ffffffffffffffffffffffffffffffffffffffff16141580156117e557508273ffffffffffffffffffffffffffffffffffffffff168473ffffffffffffffffffffffffffffffffffffffff1614806117a657506117a584846109f0565b5b806117e457508273ffffffffffffffffffffffffffffffffffffffff166117cc83610b6d565b73ffffffffffffffffffffffffffffffffffffffff16145b5b90509392505050565b5f604051905090565b5f5ffd5b5f5ffd5b5f7fffffffff0000000000000000000000000000000000000000000000000000000082169050919050565b611833816117ff565b811461183d575f5ffd5b50565b5f8135905061184e8161182a565b92915050565b5f60208284031215611869576118686117f7565b5b5f61187684828501611840565b91505092915050565b5f8115159050919050565b6118938161187f565b82525050565b5f6020820190506118ac5f83018461188a565b92915050565b5f81519050919050565b5f82825260208201905092915050565b8281835e5f83830152505050565b5f601f19601f8301169050919050565b5f6118f4826118b2565b6118fe81856118bc565b935061190e8185602086016118cc565b611917816118da565b840191505092915050565b5f6020820190508181035f83015261193a81846118ea565b905092915050565b5f819050919050565b61195481611942565b811461195e575f5ffd5b50565b5f8135905061196f8161194b565b92915050565b5f6020828403121561198a576119896117f7565b5b5f61199784828501611961565b91505092915050565b5f73ffffffffffffffffffffffffffffffffffffffff82169050919050565b5f6119c9826119a0565b9050919050565b6119d9816119bf565b82525050565b5f6020820190506119f25f8301846119d0565b92915050565b611a01816119bf565b8114611a0b575f5ffd5b50565b5f81359050611a1c816119f8565b92915050565b5f5f60408385031215611a3857611a376117f7565b5b5f611a4585828601611a0e565b9250506020611a5685828601611961565b9150509250929050565b611a6981611942565b82525050565b5f602082019050611a825f830184611a60565b92915050565b5f5f5f60608486031215611a9f57611a9e6117f7565b5b5f611aac86828701611a0e565b9350506020611abd86828701611a0e565b9250506040611ace86828701611961565b9150509250925092565b5f60208284031215611aed57611aec6117f7565b5b5f611afa84828501611a0e565b91505092915050565b611b0c8161187f565b8114611b16575f5ffd5b50565b5f81359050611b2781611b03565b92915050565b5f5f60408385031215611b4357611b426117f7565b5b5f611b5085828601611a0e565b9250506020611b6185828601611b19565b9150509250929050565b5f5ffd5b5f5ffd5b7f4e487b71000000000000000000000000000000000000000000000000000000005f52604160045260245ffd5b611ba9826118da565b810181811067ffffffffffffffff82111715611bc857611bc7611b73565b5b80604052505050565b5f611bda6117ee565b9050611be68282611ba0565b919050565b5f67ffffffffffffffff821115611c0557611c04611b73565b5b611c0e826118da565b9050602081019050919050565b828183375f83830152505050565b5f611c3b611c3684611beb565b611bd1565b905082815260208101848484011115611c5757611c56611b6f565b5b611c62848285611c1b565b509392505050565b5f82601f830112611c7e57611c7d611b6b565b5b8135611c8e848260208601611c29565b91505092915050565b5f5f5f5f60808587031215611caf57611cae6117f7565b5b5f611cbc87828801611a0e565b9450506020611ccd87828801611a0e565b9350506040611cde87828801611961565b925050606085013567ffffffffffffffff811115611cff57611cfe6117fb565b5b611d0b87828801611c6a565b91505092959194509250565b5f5ffd5b5f5ffd5b5f5f83601f840112611d3457611d33611b6b565b5b8235905067ffffffffffffffff811115611d5157611d50611d17565b5b602083019150836001820283011115611d6d57611d6c611d1b565b5b9250929050565b5f5f5f60408486031215611d8b57611d8a6117f7565b5b5f611d9886828701611a0e565b935050602084013567ffffffffffffffff811115611db957611db86117fb565b5b611dc586828701611d1f565b92509250509250925092565b5f5f60408385031215611de757611de66117f7565b5b5f611df485828601611a0e565b9250506020611e0585828601611a0e565b9150509250929050565b7f4e487b71000000000000000000000000000000000000000000000000000000005f52602260045260245ffd5b5f6002820490506001821680611e5357607f821691505b602082108103611e6657611e65611e0f565b5b50919050565b5f606082019050611e7f5f8301866119d0565b611e8c6020830185611a60565b611e9960408301846119d0565b949350505050565b7f4e6f7420617574686f72697a65640000000000000000000000000000000000005f82015250565b5f611ed5600e836118bc565b9150611ee082611ea1565b602082019050919050565b5f6020820190508181035f830152611f0281611ec9565b9050919050565b7f4e487b71000000000000000000000000000000000000000000000000000000005f52601160045260245ffd5b5f611f4082611942565b91507fffffffffffffffffffffffffffffffffffffffffffffffffffffffffffffffff8203611f7257611f71611f09565b5b600182019050919050565b5f82905092915050565b5f819050815f5260205f209050919050565b5f6020601f8301049050919050565b5f82821b905092915050565b5f60088302611fe37fffffffffffffffffffffffffffffffffffffffffffffffffffffffffffffffff82611fa8565b611fed8683611fa8565b95508019841693508086168417925050509392505050565b5f819050919050565b5f61202861202361201e84611942565b612005565b611942565b9050919050565b5f819050919050565b6120418361200e565b61205561204d8261202f565b848454611fb4565b825550505050565b5f5f905090565b61206c61205d565b612077818484612038565b505050565b5b8181101561209a5761208f5f82612064565b60018101905061207d565b5050565b601f8211156120df576120b081611f87565b6120b984611f99565b810160208510156120c8578190505b6120dc6120d485611f99565b83018261207c565b50505b505050565b5f82821c905092915050565b5f6120ff5f19846008026120e4565b1980831691505092915050565b5f61211783836120f0565b9150826002028217905092915050565b6121318383611f7d565b67ffffffffffffffff81111561214a57612149611b73565b5b6121548254611e3c565b61215f82828561209e565b5f601f83116001811461218c575f841561217a578287013590505b612184858261210c565b8655506121eb565b601f19841661219a86611f87565b5f5b828110156121c15784890135825560018201915060208501945060208101905061219c565b868310156121de57848901356121da601f8916826120f0565b8355505b6001600288020188555050505b50505050505050565b5f81905092915050565b5f612208826118b2565b61221281856121f4565b93506122228185602086016118cc565b80840191505092915050565b5f61223982856121fe565b915061224582846121fe565b91508190509392505050565b5f81519050919050565b5f82825260208201905092915050565b5f61227582612251565b61227f818561225b565b935061228f8185602086016118cc565b612298816118da565b840191505092915050565b5f6080820190506122b65f8301876119d0565b6122c360208301866119d0565b6122d06040830185611a60565b81810360608301526122e2818461226b565b905095945050505050565b5f815190506122fb8161182a565b92915050565b5f60208284031215612316576123156117f7565b5b5f612323848285016122ed565b91505092915050565b7f4e487b71000000000000000000000000000000000000000000000000000000005f52601260045260245ffd5b5f60408201905061236c5f8301856119d0565b6123796020830184611a60565b939250505056fea26469706673582212204b80e5a33352f611d86811259caee7dc30a9dcb547c1f12ee3f7876469da55cc64736f6c634300081c0033",
  "linkReferences": {},
  "deployedLinkReferences": {}
}